{
  "contractName": "Voting",
  "abi": [
    {
      "constant": true,
      "inputs": [
        {
          "name": "",
          "type": "bytes32"
        }
      ],
      "name": "eventList",
      "outputs": [
        {
          "name": "ID",
          "type": "uint256"
        }
      ],
      "payable": false,
      "stateMutability": "view",
      "type": "function"
    },
    {
      "constant": true,
      "inputs": [
        {
          "name": "_bytes32",
          "type": "bytes32"
        }
      ],
      "name": "bytes32ToStr",
      "outputs": [
        {
          "name": "",
          "type": "string"
        }
      ],
      "payable": false,
      "stateMutability": "view",
      "type": "function"
    },
    {
      "constant": true,
      "inputs": [
        {
          "name": "_event",
          "type": "bytes32"
        },
        {
          "name": "_nik",
          "type": "bytes32"
        }
      ],
      "name": "getVoterChoosen",
      "outputs": [
        {
          "name": "",
          "type": "bytes32"
        }
      ],
      "payable": false,
      "stateMutability": "view",
      "type": "function"
    },
    {
      "constant": true,
      "inputs": [
        {
          "name": "_event",
          "type": "bytes32"
        },
        {
          "name": "_nik",
          "type": "bytes32"
        }
      ],
      "name": "validNIK",
      "outputs": [
        {
          "name": "",
          "type": "bool"
        }
      ],
      "payable": false,
      "stateMutability": "view",
      "type": "function"
    },
    {
      "constant": true,
      "inputs": [
        {
          "name": "_event",
          "type": "bytes32"
        },
        {
          "name": "_candidate",
          "type": "bytes32"
        }
      ],
      "name": "totalVotesFor",
      "outputs": [
        {
          "name": "",
          "type": "uint8"
        }
      ],
      "payable": false,
      "stateMutability": "view",
      "type": "function"
    },
    {
      "constant": false,
      "inputs": [
        {
          "name": "_event",
          "type": "bytes32"
        },
        {
          "name": "_candidate",
          "type": "bytes32"
        },
        {
          "name": "_voter",
          "type": "address"
        },
        {
          "name": "_signedMessage",
          "type": "bytes"
        },
        {
          "name": "_nik",
          "type": "bytes32"
        }
      ],
      "name": "voteForCandidate",
      "outputs": [],
      "payable": false,
      "stateMutability": "nonpayable",
      "type": "function"
    }
  ],
  "bytecode": "0x608060405234801561001057600080fd5b506107ec806100206000396000f300608060405260043610610078576000357c0100000000000000000000000000000000000000000000000000000000900463ffffffff1680634034e12f1461007d5780635d4c94ce146100d857806385b6573c1461018b578063b4172d00146101e2578063caa4ad5214610227578063ef0b236814610280575b600080fd5b34801561008957600080fd5b506100ba6004803603810190808035600019169060200190929190803560001916906020019092919050505061032a565b60405180826000191660001916815260200191505060405180910390f35b3480156100e457600080fd5b5061018960048036038101908080356000191690602001909291908035600019169060200190929190803573ffffffffffffffffffffffffffffffffffffffff169060200190929190803590602001908201803590602001908080601f016020809104026020016040519081016040528093929190818152602001838380828437820191505050505050919291929080356000191690602001909291905050506103e3565b005b34801561019757600080fd5b506101c860048036038101908080356000191690602001909291908035600019169060200190929190505050610581565b604051808215151515815260200191505060405180910390f35b3480156101ee57600080fd5b5061021160048036038101908080356000191690602001909291905050506105e3565b6040518082815260200191505060405180910390f35b34801561023357600080fd5b5061026460048036038101908080356000191690602001909291908035600019169060200190929190505050610601565b604051808260ff1660ff16815260200191505060405180910390f35b34801561028c57600080fd5b506102af600480360381019080803560001916906020019092919050505061064f565b6040518080602001828103825283818151815260200191508051906020019080838360005b838110156102ef5780820151818401526020810190506102d4565b50505050905090810190601f16801561031c5780820380516001836020036101000a031916815260200191505b509250505060405180910390f35b600080600084600019166000191681526020019081526020016000206001016000836000191660001916815260200190815260200160002060020160009054906101000a900460ff16156103b9576000808460001916600019168152602001908152602001600020600101600083600019166000191681526020019081526020016000206000015490506103dd565b7f556e646566696e6564000000000000000000000000000000000000000000000090505b92915050565b60008086600019166000191681526020019081526020016000206001016000826000191660001916815260200190815260200160002060020160009054906101000a900460ff1615151561043657600080fd5b600160008087600019166000191681526020019081526020016000206002016000866000191660001916815260200190815260200160002060008282829054906101000a900460ff160192506101000a81548160ff021916908360ff16021790555083600080876000191660001916815260200190815260200160002060010160008360001916600019168152602001908152602001600020600001816000191690555081600080876000191660001916815260200190815260200160002060010160008360001916600019168152602001908152602001600020600101908051906020019061052792919061071b565b50600160008087600019166000191681526020019081526020016000206001016000836000191660001916815260200190815260200160002060020160006101000a81548160ff0219169083151502179055505050505050565b600080600084600019166000191681526020019081526020016000206001016000836000191660001916815260200190815260200160002060020160009054906101000a900460ff16156105d857600090506105dd565b600190505b92915050565b60006020528060005260406000206000915090508060000154905081565b600080600084600019166000191681526020019081526020016000206002016000836000191660001916815260200190815260200160002060009054906101000a900460ff16905092915050565b606080600060206040519080825280601f01601f1916602001820160405280156106885781602001602082028038833980820191505090505b5091505b60208110156107115783816020811015156106a357fe5b1a7f01000000000000000000000000000000000000000000000000000000000000000282828151811015156106d457fe5b9060200101907effffffffffffffffffffffffffffffffffffffffffffffffffffffffffffff1916908160001a905350808060010191505061068c565b8192505050919050565b828054600181600116156101000203166002900490600052602060002090601f016020900481019282601f1061075c57805160ff191683800117855561078a565b8280016001018555821561078a579182015b8281111561078957825182559160200191906001019061076e565b5b509050610797919061079b565b5090565b6107bd91905b808211156107b95760008160009055506001016107a1565b5090565b905600a165627a7a723058207884dcd7eecfbf6aba94dd94f2d1d5efa8e04f6ffbd5c1a9779c5dfb62ebf67f0029",
  "source": "pragma solidity ^0.4.18;\nimport \"./ECRecovery.sol\";\n\ncontract Voting {\n  using ECRecovery for bytes32;\n  \n  struct Event{\n    uint ID;\n    mapping(bytes32 => Voter) voterInfo;\n    mapping (bytes32 => uint8) votesReceived;\n  }\n\n  struct Voter {\n      bytes32 choosen_candidate;\n      bytes signature;\n      bool status;\n  }\n\n  mapping (bytes32 => Event) public eventList;\n  // mapping (bytes32 => uint8) public votesReceived;\n  // mapping(bytes32 => Voter) public voterInfo;\n\n  function bytes32ToStr(bytes32 _bytes32) public constant returns (string){\n\n    bytes memory bytesArray = new bytes(32);\n    for (uint256 i; i < 32; i++) {\n        bytesArray[i] = _bytes32[i];\n        }\n    return string(bytesArray);\n  }\n\n  function getVoterChoosen(bytes32 _event, bytes32 _nik) view public returns (bytes32){\n    if(eventList[_event].voterInfo[_nik].status) return eventList[_event].voterInfo[_nik].choosen_candidate;\n    else return 'Undefined';\n  }\n\n  function validNIK(bytes32 _event, bytes32 _nik) view public returns (bool) {\n    if(eventList[_event].voterInfo[_nik].status) return false;\n    else return true; \n  }\n\n  function totalVotesFor(bytes32 _event, bytes32 _candidate) view public returns (uint8) {\n    return eventList[_event].votesReceived[_candidate];\n  }\n\n  function voteForCandidate(bytes32 _event, bytes32 _candidate, address _voter, bytes _signedMessage, bytes32 _nik) public {\n\n    require(!eventList[_event].voterInfo[_nik].status);\n    eventList[_event].votesReceived[_candidate] += 1;\n\n    eventList[_event].voterInfo[_nik].choosen_candidate = _candidate;\n    eventList[_event].voterInfo[_nik].signature = _signedMessage;\n    eventList[_event].voterInfo[_nik].status = true;\n\n  }\n}\n\n",
  "sourcePath": "/home/ali/Downloads/webpack-express-boilerplate-master/contracts/Voting.sol",
  "compiler": {
    "name": "solc",
    "version": "0.4.24+commit.e67f0147.Emscripten.clang"
  },
  "schemaVersion": "2.0.1",
  "updatedAt": "2019-01-13T06:52:03.268Z"
}